:020000040800F2
:100000006804002001010008971100081D0E000877
:1000100095110008990100084D1200080000000029
:10002000000000000000000000000000BB110008FC
:100030009B01000800000000B9110008BD11000874
:100040001B0100081B0100081B0100081B01000820
:100050001B0100081B0100081B0100081B01000810
:100060001B0100081B0100081B0100081B01000800
:100070001B0100081B0100081B0100081B010008F0
:100080001B0100081B0100081B0100081B010008E0
:100090001B0100081B0100081B0100081B010008D0
:1000A0001B0100081B0100081B0100081B010008C0
:1000B0001B0100081B0100081B0100081B010008B0
:1000C0001B0100081B0100081B0100081B010008A0
:1000D0001B0100081B0100081B0100081B01000890
:1000E0001B0100081B0100081B010008DFF80CD0F1
:1000F00000F040F8004800471D1600086804002082
:100100000648804706480047FEE7FEE7FEE7FEE7B1
:10011000FEE7FEE7FEE7FEE7FEE7FEE70512000862
:10012000ED000008D2B201E000F8012B491EFBD21D
:1001300070470022F6E710B513460A4604461946F2
:10014000FFF7F0FF204610BD30B50B4601460020FA
:100150002022012409E021FA02F59D4205D303FA89
:1001600002F5491B04FA02F52844151EA2F101020A
:10017000F1DC30BD064C074D06E0E06840F00103BD
:1001800094E8070098471034AC42F6D3FFF7B2FF6B
:100190001818000838180008FEE7704701B507482E
:1001A00007490068B0FBF1F0009948430090411EF8
:1001B000009101D30846FAE708BD000010000020B6
:1001C000404B4C0070B5044600F0ECF80546601C4E
:1001D00002D004480078044400F0E4F8401BA04238
:1001E000FAD370BD040000202DE9F84FDFF890A18C
:1001F00000220AF1040B144601274FF00F090BF1FE
:10020000040E00BF0B6807FA04F52B40AB4274D113
:10021000DFF870C14E68A6EB0C0866452BD00DDCEC
:10022000032E34D005DC36B3012E19D0022E2FD187
:100230001BE0112E16D0122E2AD119E0B8F5881F16
:1002400019D006DCB8F5803F15D0B8F5801F1FD156
:1002500011E0B8F5001F0ED0B8F5041F18D10AE060
:10026000CA6815E0CA68121D12E0CA6808320FE0B9
:10027000CA680C320CE08A682AB1012A4FF00802E1
:1002800003D0456104E0042202E0056100E00022A1
:10029000FF2B01D8064601E000F104064FEA840571
:1002A00001D9A5F12005D6F800C009FA05F82CEA15
:1002B000080C02FA05F54CEA050CC6F800C04D68BA
:1002C000ED0057D5304DAE6946F00106AE61AD691F
:1002D00024F0030605F0010500952C4D06EB050CF6
:1002E000DCF80850A6074FEA167809FA08F6B54375
:1002F000274EB04202D1002610E03BE0254EB0422E
:1003000001D101260AE0244EB04201D1022605E0C7
:10031000224EB04201D1032600E0042606FA08F678
:100320002E43CCF808604D68DAF80060ED035546BE
:1003300001D51E4300E09E432E604D68DBF800604F
:10034000AD035D4601D51E4300E09E432E604D681F
:10035000DEF80060ED02754601D51E4300E09E43C5
:100360002E604D68AD020E4D2E6801D51E4300E093
:100370009E432E60641C102CFFF444AFBDE8F88F40
:100380000004014000001110001002400000014074
:1003900000080140000C0140001001400014014021
:1003A0000C040140014880687047000004000020F0
:1003B00070B504001BD094F83D00002520B984F8E6
:1003C0003C50204600F0E0F9242084F83D002068ED
:1003D000016821F00101016000F044FB404A6168BE
:1003E000914201D83F4900E03F49884201D20120B3
:1003F00070BD3E492368B0FBF1F1596063689342D8
:1004000006D94FF4967359434FF47A73B1FBF3F165
:100410002368491C19626168914210D84900401E46
:10042000B0FBF1F2521CC2F30B02042A01D20420E9
:1004300022E0B0FBF1F0401CC0F30B001CE0A3680D
:10044000CBB301EBC10202EB0116421EB2FBF6F286
:10045000521C42F48042120536D06BB301EBC1024C
:1004600002EB0111401EB0FBF1F0401CC0F30B0089
:1004700040F4804040F400402168C861D4E907019D
:10048000084321680860D4E90310084321688860A4
:10049000D4E9050108432168C8602068016841F07B
:1004A000010101602564202084F83D00256384F863
:1004B0003E50002070BD00E008E001EB4106421E06
:1004C000B2FBF6F2521CC6E70120D5E701EB410171
:1004D000401EB0FBF1F0401CC0F30B00CAE7000067
:1004E000A086010080841E0000093D0040420F00EC
:1004F0002DE9FF4F81B099468B4604464FF0010825
:10050000FFF750FF054694F83D0020287BD11923C2
:1005100001224D492046009500F007FD002872D1C8
:1005200094F83C0001286ED0012084F83C0020683B
:100530000168C90703D1016841F001010160206829
:10054000016821F400610160242084F83D00002648
:1005500026643E48E06220272068016841F48071EB
:1005600001604B4600224FF001112046009500F03B
:10057000DCFC002858D121680BF0FE000861FFF771
:1005800011FF2168054648694969C0F3400094F8A5
:100590003D20C1F380214FF0A00A12E0B9F1000F15
:1005A00004D0FFF7FFFE411B494501D984F83DA067
:1005B000216848694969C0F3400094F83D20C1F3BF
:1005C0008021084301D1A02AE8D184F83D70206839
:1005D0004169C943890717D4016841F4007101607A
:1005E0002068416980691923012217492046009536
:1005F00000F09BFCC0B984F83D7084F83C6000209A
:1006000005B0BDE8F08F1DE0016841F400710160A4
:1006100021686FF480604861192301220A4920464D
:10062000009500F082FC08B10320E9E741460398F9
:1006300008F1010881428FD384F83D7084F83C6052
:100640000120DDE70220DBE7020010000000FFFFD1
:100650002DE9F84F1F4690468A460446DDF828905B
:10066000FFF7A0FE064694F83D0020287ED119230E
:10067000012243492046009600F057FC00287DD116
:1006800094F83C00012879D0012084F83C002068CF
:100690000168C90703D1016841F0010101602068C8
:1006A000016821F400610160212084F83D001020E0
:1006B00084F83E0000252564C4F82480678531480D
:1006C000E062608D208533464A465146204600F060
:1006D000BBFB28B1206C84F83C5004284CD00DE0C2
:1006E000206841698069009030E0324649462046E2
:1006F00000F090FC28B1206C042838D00320BDE81D
:10070000F88F606A411C6162216800780861608D21
:10071000401E6085208D401E80B2208521684A6978
:10072000D24352070BD450B1606A421C6262007817
:100730000861608D401E6085208D401E20853246F8
:100740004946204600F0CAFB0028D4D1208D00285D
:10075000CBD154F83D0B016841F4007101602020B9
:1007600004F81E09E57765770020C8E706E02068F1
:10077000016841F4007101600120C0E70220BEE77A
:10078000020010000000FFFF10B586B000210091AC
:1007900001910291039100680F4988421AD10F4CD0
:1007A000A06940F00800A061A069694600F0080057
:1007B0000490C0200090122001900320039008486C
:1007C000FFF712FDE06940F40010E061E06900F419
:1007D0000010049006B010BD00540040001002400C
:1007E000000C014002488168027811448160704722
:1007F00004000020074810B5016841F010010160B5
:10080000032000F067F8002000F006F800F024F85C
:10081000002010BD0020024070B50D4D04464FF47D
:100820007A712878B1FBF0F00A490968B1FBF0F061
:1008300000F0E0FA48B9102C07D200222146501EE1
:1008400000F028F800206C6070BD012070BD000031
:1008500004000020100000200C4808B5816941F018
:1008600001018161816901F001010091C16941F0DB
:100870008051C161C06900F0805000900448416817
:1008800021F0E06141F00071416008BD00100240BC
:1008900000000140F0B40E4B1B680C46C3F302236A
:1008A000C3F10705042D00D90425191D072901D21C
:1008B000002300E0DB1E012606FA05F1491E214057
:1008C00099409E40761E16403143F0BC00F064BC57
:1008D0000CED00E0064900F0070208684FF6FF0340
:1008E000184040EA0220034A1043086070470000A5
:1008F0000CED00E00000FA052DE9F047DFF8548127
:1009000005460E46D8F8000000F00700B0420CD2B1
:10091000D8F8001021F007013143C8F80010D8F8CA
:10092000000000F00700B0426FD128684A4C8107F0
:1009300012D5400703D5606840F4E0606060287815
:10094000000703D5606840F4605060606068A96883
:1009500020F0F000084360602878C00744D0686841
:10096000012816D02168022816D0890700294CDA00
:10097000616821F0030101436160FFF713FD6968BD
:10098000074641F2883001290ED00229814618D04D
:1009900026E021688903E9E78901E7E7FFF702FD1F
:1009A000C11B494501D918E081466068C0F3810048
:1009B0000128F3D118E000BFFFF7F4FCC11B494543
:1009C0000BD86068C0F381000228F5D10CE000BFAD
:1009D000FFF7E8FCC11B494502D90320BDE8F087B9
:1009E000606810F00C0FF3D1D8F80010404601F009
:1009F0000701B1420BD9016821F0070131430160C1
:100A0000006800F00700B04201D00120E6E7287836
:100A1000400705D56068E96820F4E060084360603D
:100A20002878000706D56068296920F4605040EAFC
:100A3000C100606000F026F86168084AC1F3031144
:100A4000515CC840064908600020FFF7E5FE002021
:100A5000C4E7000000200240001002400018000817
:100A6000100000200448054900684968044AC1F3A1
:100A70000221515CC8407047100000200010024065
:100A80001018000812A185B00FC98DE80F0014A03E
:100A9000144A006804905168134801F00C03042BB9
:100AA00010D0082B0ED1C1F38343C9031DF80300F6
:100AB0000AD5516804AAC1F34041515C0A4A504327
:100AC000B0FBF1F005B0704708494843FAE7000071
:100AD00002030405060708090A0B0C0D0E0F10107F
:100AE000010200000010024000127A0000093D00DF
:100AF0002DE9F84F04460078B94DC00748D0686822
:100B0000C0F38100012807D06868C0F38100022883
:100B100009D16868C00306D52868800338D56068A5
:100B200000286FD034E06068B0F5803F0BD010B182
:100B3000B0F5A02F11D0286820F4803028602868F4
:100B400020F4802002E0286840F48030286060684B
:100B500088B1FFF727FC064609E0286840F48020AA
:100B60002860F0E7FFF71EFC801B642875D8286812
:100B70008003F7D50CE0FFF715FC064605E000BF43
:100B8000FFF710FC801B6428F0D828688003F7D496
:100B90002078944E80074FF001094FF000083BD5B4
:100BA000686810F00C0F07D06868C0F38100022855
:100BB00009D16868C00306D42868800714D5206965
:100BC00001281FD110E02069B0B1C6F80090FFF7EE
:100BD000E9FB074605E000BFFFF7E4FBC01B022866
:100BE000C4D828688007F7D52868616920F0F80024
:100BF00040EAC10028600FE0C6F80080FFF7D2FB92
:100C0000074606E0E9E000BFFFF7CCFBC01B022867
:100C100023D828688007F7D4207800072CD572489D
:100C2000A169D9B1C0F80090FFF7BCFB074604E00A
:100C3000FFF7B8FBC01B02280FD8686A8007F7D5FA
:100C40006A484FF4FA510068B0FBF1F0009000BF21
:100C50000098411E0091FAD20EE080E0C0F80080BA
:100C6000FFF7A0FB074604E0FFF79CFBC01B022830
:100C700075D8686A8007F7D42078400760D5E8699E
:100C80000027C00008D4E86940F08050E861E869B6
:100C9000012700F08050009055480168C90513D421
:100CA0000168834641F480710160FFF77BFB824657
:100CB00006E000BFFFF776FBA0EB0A0064284ED8E1
:100CC000DBF80000C005F5D5E06801280AD008B1BE
:100CD000052813D0286A20F001002862286A20F035
:100CE000040002E0286A40F001002862E06841F256
:100CF000883B98B1FFF756FB82460BE0286A40F02C
:100D000004002862EEE700BFFFF74CFBA0EB0A01EE
:100D100059455AD8286A8007F6D50CE0FFF742FB00
:100D2000824605E0FFF73EFBA0EB0A0159454CD88F
:100D3000286A8007F6D41FB1E86920F08050E86186
:100D4000E06988B36968C1F38101022945D00228AE
:100D5000C6F8608004D0FFF725FB044638E034E095
:100D6000FFF720FB074604E0FFF71CFBC01B02282F
:100D70002BD828688001F7D4206AB0F5803F05D1D0
:100D80006868A16820F4003008436860D4E908016D
:100D90000843696821F4741108436860C6F86090DC
:100DA000FFF700FB044606E015E000BFFFF7FAFA84
:100DB000001B022809D828688001F7D50BE000BF86
:100DC000FFF7F0FA001B022802D90320BDE8F88FD4
:100DD00028688001F4D40020F8E70120F6E700003D
:100DE00000100240000042428004424210000020F5
:100DF0000070004010B5401EB0F1807F01D301208B
:100E000010BD4FF0E02460610F21601700F0C4F9BD
:100E10000020A06107202061002010BDFEE70168CE
:100E20004A69D24352050CD46FF480624A610421AE
:100E30000164002140F8301F202242730173012019
:100E40007047002070470000F8B50446C06A1E468F
:100E50000D461746042807D0012805D010F5803F1D
:100E600002D0206B122804D12068016841F48071FF
:100E70000160134600224FF001112046009600F059
:100E800054F8A0B92069B0F5804F12D0062021682F
:100E900000EAD51040F0F000086133463A460E49AA
:100EA000204600F073F838B1206C042811D00320DC
:100EB000F8BD05F0FE0000E0E8B2216808610649CF
:100EC00033463A46891F204600F060F80028EBD1EF
:100ED000F8BD0120F8BD00000800010070B51646FD
:100EE0000D4604461AE02046FFF799FF08B101209D
:100EF00070BD681C12D025B1FFF754FA801BA842C0
:100F00000CD954F8400F40F0200044F8100900209C
:100F10002060202161732073032070BD2068406928
:100F2000C0434007DFD4002070BD2DE9F0471E46C6
:100F300090460D460446C1F30747DDF8209012E0C5
:100F4000701C10D02EB1FFF72DFAA0EB0900B042B3
:100F500009D9002044F8300F20216173A073207359
:100F60000320BDE8F0872068012F0AD0806925EAB8
:100F700000000004000C06D000214145E0D0002014
:100F8000EFE74069F3E70121F7E700002DE9F047BB
:100F90009A4691460D46044600264FF02008C1F3BC
:100FA00007472AE020684069C043400512D4206802
:100FB000016841F40071016021686FF4806048614C
:100FC00004202064266384F83D8084F83C6001207E
:100FD000BDE8F087B9F1FF3F0FD0B9F1000F05D0A0
:100FE000FFF7E0F9A0EB0A01494506D944F8306F54
:100FF00084F80D8026730320EAE72068012F07D0CC
:10100000D0F8180025EA00000004000CE0D0C9E781
:101010004069F7E770B516460D4604461AE02046CB
:10102000FFF7FDFE08B1012070BD681C12D025B18C
:10103000FFF7B8F9801BA8420CD954F8400F40F0D4
:10104000200044F8100900202060202161732073E3
:10105000032070BD20684069C0430006DFD4002033
:1010600070BD10B50021012000F094FBBDE81040D8
:1010700040F2DC50FFF792B8012100F08BBB10B5B5
:1010800089B1012912D0022912D0032912D154307A
:10109000C0B240F08000002100F07CFBBDE81040B1
:1010A0000120FFF78FB840F08000F4E74030EFE711
:1010B0001430EDE710BD70B50546002404E00121B1
:1010C00000F068FB641CE4B2285D0028F7D170BD15
:1010D000084908B508704FF47A70009006480088F7
:1010E0004FF6FF7101EA40010123024A0348FFF76E
:1010F000AFFA08BD0200002000000020140000200C
:1011000010B50F20FFF75EF8032000F05BFB042012
:10111000FFF758F8032000F055FB6420FFF73EF876
:10112000032000F04FFB0120FFF74CF8022000F0F5
:1011300049FB0120FFF746F80021282000F02AFB98
:101140000120FFF73FF800210C2000F023FB0120D5
:10115000FFF738F80021012000F01CFB0220FFF708
:1011600031F80021062000F015FB0120FFF72AF8D6
:10117000074C607840F008006070FFF7A9FF6078C6
:1011800020F002006070BDE81040FFF7A1BF000032
:1011900002000020FEE770470907090E002806DA62
:1011A00000F00F0000F1E02080F8141D704700F1FE
:1011B000E02080F80014704770477047FFF712BBBB
:1011C00010B590B028216846FEF7B3FF14210AA895
:1011D000FEF7AFFF022000900120049010200024B1
:1011E000059007946846FFF783FC0F20CDE90A04B9
:1011F0000C940D9400210AA80E94FFF77DFB10B00B
:1012000010BD00000D48016841F001010160416816
:101210000B4A1140416001680A4A114001600168AF
:1012200021F480210160416821F4FE0141604FF406
:101230001F0181600449C00308607047001002402C
:101240000000FFF8FFFFF6FE08ED00E0FEE70000FB
:101250000FB4084B10B504A902AA039800F01CF8BB
:10126000044602A9002000F0B8F9204610BC5DF841
:1012700014FB0000DB15000802E008C8121F08C1BB
:10128000002AFAD170477047002001E001C1121F07
:10129000002AFBD1704700002DE9FF4F8BB0884634
:1012A0000546002606E025280BD0DDE90D12904703
:1012B0006D1C761C28780028F5D10FB03046BDE8AB
:1012C000F08F0024A146A2460122AE4900E004436B
:1012D00015F8013F203B02FA03F00842F7D12878C5
:1012E0002A2810D06FF02F022878A0F130010929A8
:1012F00015D809EB890102EB410144F0020400EB2F
:1013000001096D1CF0E758F8041B5FEA010903D5D9
:1013100044F40054C9F1000944F002046D1C28781B
:101320002E2817D115F8010F44F004042A280ED0F6
:101330006FF02F022878A0F1300109290AD80AEBB2
:101340008A0102EB410100EB010A6D1CF2E758F83B
:1013500004AB6D1C28786C280FD006DC4C2817D005
:1013600068280DD06A2814D104E0742810D07A2897
:101370000FD10DE044F400140AE044F4801401E0BD
:1013800044F440146978814202D104F580146D1C44
:101390006D1C2878692865D006DC00288DD063286C
:1013A00027D0642806D15DE06E2808D073282AD0A3
:1013B000752877D0DDE90D129047761CE0E0C4F384
:1013C0000250022809D003280DD0D8F800100428B4
:1013D0000DD00E6008F10408D2E0D8F80010F21722
:1013E000C1E90062F6E7D8F800100E80F2E70E704F
:1013F000F0E718F8041B8DF8001000208DF80100AC
:10140000EB46012003E058F804BB4FF0FF306107C2
:101410004FF0000701D40AE07F1C57450DDA8742E0
:10142000FADB1BF807100029F6D106E07F1C874283
:10143000FCDB1BF807100029F8D1DDE90D23A9EB2F
:1014400007008146214600F0B1F83044C61904E097
:10145000DDE90D121BF8010B90477F1EF8D22146E3
:10146000484688E058F8040BC4F302514FF00A0BC9
:10147000032900D100B2042900D140B2002802DAC9
:1014800040422D2102E0210505D52B218DF82410A5
:10149000012104E006E0E10710D02021F6E708AFC3
:1014A000089113E058F8040BC4F302514FF00A0BF3
:1014B000032900D180B2042900D1C0B20021EEE797
:1014C0005946FEF741FE303107F8011D0028F7D1DB
:1014D000ADEB070000F1200B600702D524F4803447
:1014E00001E04FF0010ADA4502DDAAEB0B0000E053
:1014F0000020824600EB0B0108980144A9EB010093
:101500000A90E00306D4DDE90D2321460A9800F095
:101510004DF806444FF0000908E009A911F8090048
:10152000DDE90D12904709F10109761C08998945FA
:10153000F3DBE0030CD5DDE90D2321460A9800F02A
:1015400035F8064404E0DDE90D1230209047761CA2
:10155000BAF10001AAF1010AF5DC05E0DDE90D129E
:1015600017F8010B9047761CBBF10001ABF1010BA2
:10157000F4DC0A982146DDE90D2300F005F8064465
:101580006D1C97E6092801002DE9F041044600256D
:101590001E461746880404D405E039462020B0478B
:1015A0006D1C641EF9D52846BDE8F0812DE9F04197
:1015B000044600251E469046C80301D5302700E0AA
:1015C0002027880404D505E041463846B0476D1C05
:1015D000641EF9D52846BDE8F0810A68531C0B60EB
:1015E0001070704770B506464FF4FA70FEF7EAFDCA
:1015F000094D0024C823022221463046FEF778FF19
:1016000028B960082880FFF77BFD641CE4B2641CE5
:10161000E4B2802CEED370BD0000002086B0FFF74E
:10162000E9F8FFF7CDFD4B48816941F02001816168
:10163000816901F020010091816941F0040181611B
:10164000816901F004010091816941F00801816123
:101650008069414900F00800009040484FF4804202
:1016600001603F49416000218160C0E9031241618E
:101670008161C1610162FEF79BFE3848FFF7B2FF4E
:101680000A20FEF79FFDFFF73BFD36A101A8FFF7FB
:10169000DFFD01A8FFF70FFD4FF4FA642046FEF7C7
:1016A00091FDFFF7DEFC00210220FFF7E8FC73202C
:1016B000FFF7E2FC4FF42F752846FEF783FD00216B
:1016C0000320FFF7DCFC7420FFF7D6FC2846FEF76A
:1016D00079FD00210420FFF7D2FC6D20FFF7CCFC40
:1016E0002846FEF76FFD22A101A8FFF7B1FD01A872
:1016F000FFF7E1FC2046FEF765FDFEF753FE0546C9
:10170000FEF750FE04464FF47A783C264FF46167AA
:10171000FEF748FEA042FBD3611BB1FBF8F0B0FB23
:10172000F7F207FB1202B2FBF6F3B0FBF6F1B0FBE7
:10173000F7F206FB1101009110A101A804F5FA745B
:10174000FFF786FD01210020FFF799FC01A8FFF7B4
:10175000B2FCDDE7001002400054004014000020FD
:10176000A086010053746D33324631303343380064
:1017700033324631303343380000000025303169C0
:101780003A253032693A253032692020303A3030FB
:101790003A3030000A4A10B55378044661B143F03C
:1017A00001005070FFF794FC200900F00BF8204670
:1017B000BDE8104000F006B823F00100F1E700009A
:1017C0000200002070B50D4C0007050E607840F057
:1017D00004006070FFF77CFC3220FEF7DFFC6078CD
:1017E0002843FFF775FC607820F004006070FFF775
:1017F0006FFCBDE870403220FEF7D0BC0200002034
:1018000000000000000000000102030406070809B0
:101810000000000001020304381800080000002046
:1018200014000000781200084C1800081400002072
:101830005404000088120008270000000100000086
:0C184000100000000000000000A24A049C
:04000005080000ED02
:00000001FF
